{
  "contractName": "Casino",
  "abi": [
    {
      "constant": true,
      "inputs": [],
      "name": "numberOfBets",
      "outputs": [
        {
          "name": "",
          "type": "uint256"
        }
      ],
      "payable": false,
      "stateMutability": "view",
      "type": "function"
    },
    {
      "constant": true,
      "inputs": [
        {
          "name": "player",
          "type": "address"
        }
      ],
      "name": "checkPlayerExists",
      "outputs": [
        {
          "name": "",
          "type": "bool"
        }
      ],
      "payable": false,
      "stateMutability": "view",
      "type": "function"
    },
    {
      "constant": false,
      "inputs": [],
      "name": "kill",
      "outputs": [],
      "payable": false,
      "stateMutability": "nonpayable",
      "type": "function"
    },
    {
      "constant": false,
      "inputs": [
        {
          "name": "number",
          "type": "uint256"
        }
      ],
      "name": "bet",
      "outputs": [],
      "payable": true,
      "stateMutability": "payable",
      "type": "function"
    },
    {
      "constant": true,
      "inputs": [],
      "name": "minBetNumber",
      "outputs": [
        {
          "name": "",
          "type": "uint256"
        }
      ],
      "payable": false,
      "stateMutability": "view",
      "type": "function"
    },
    {
      "constant": true,
      "inputs": [],
      "name": "maxBetNumber",
      "outputs": [
        {
          "name": "",
          "type": "uint256"
        }
      ],
      "payable": false,
      "stateMutability": "view",
      "type": "function"
    },
    {
      "constant": true,
      "inputs": [],
      "name": "minimumBet",
      "outputs": [
        {
          "name": "",
          "type": "uint256"
        }
      ],
      "payable": false,
      "stateMutability": "view",
      "type": "function"
    },
    {
      "constant": true,
      "inputs": [],
      "name": "maxAmountOfBets",
      "outputs": [
        {
          "name": "",
          "type": "uint256"
        }
      ],
      "payable": false,
      "stateMutability": "view",
      "type": "function"
    },
    {
      "constant": true,
      "inputs": [],
      "name": "totalBet",
      "outputs": [
        {
          "name": "",
          "type": "uint256"
        }
      ],
      "payable": false,
      "stateMutability": "view",
      "type": "function"
    },
    {
      "inputs": [
        {
          "name": "_minimumBet",
          "type": "uint256"
        }
      ],
      "payable": false,
      "stateMutability": "nonpayable",
      "type": "constructor"
    },
    {
      "payable": true,
      "stateMutability": "payable",
      "type": "fallback"
    }
  ],
  "bytecode": "0x606060405260646004556001600555600a600655341561001e57600080fd5b60405160208061088583398101604052808051906020019091905050336000806101000a81548173ffffffffffffffffffffffffffffffffffffffff021916908373ffffffffffffffffffffffffffffffffffffffff1602179055506001600581905550600a60068190555060008114151561009c57806001819055505b506107d9806100ac6000396000f300606060405260043610610099576000357c0100000000000000000000000000000000000000000000000000000000900463ffffffff1680632ca8c6d31461009b5780634081d916146100c457806341c0e1b5146101155780637365870b1461012a57806397043a3714610142578063ac43e8471461016b578063c38a8afd14610194578063e08a96cd146101bd578063fe5e1853146101e6575b005b34156100a657600080fd5b6100ae61020f565b6040518082815260200191505060405180910390f35b34156100cf57600080fd5b6100fb600480803573ffffffffffffffffffffffffffffffffffffffff16906020019091905050610215565b604051808215151515815260200191505060405180910390f35b341561012057600080fd5b6101286102b9565b005b610140600480803590602001909190505061034a565b005b341561014d57600080fd5b6101556104d9565b6040518082815260200191505060405180910390f35b341561017657600080fd5b61017e6104df565b6040518082815260200191505060405180910390f35b341561019f57600080fd5b6101a76104e5565b6040518082815260200191505060405180910390f35b34156101c857600080fd5b6101d06104eb565b6040518082815260200191505060405180910390f35b34156101f157600080fd5b6101f96104f1565b6040518082815260200191505060405180910390f35b60035481565b600080600090505b6007805490508110156102ae578273ffffffffffffffffffffffffffffffffffffffff1660078281548110151561025057fe5b906000526020600020900160009054906101000a900473ffffffffffffffffffffffffffffffffffffffff1673ffffffffffffffffffffffffffffffffffffffff1614156102a157600191506102b3565b808060010191505061021d565b600091505b50919050565b6000809054906101000a900473ffffffffffffffffffffffffffffffffffffffff1673ffffffffffffffffffffffffffffffffffffffff163373ffffffffffffffffffffffffffffffffffffffff161415610348576000809054906101000a900473ffffffffffffffffffffffffffffffffffffffff1673ffffffffffffffffffffffffffffffffffffffff16ff5b565b6000151561035733610215565b151514151561036257fe5b600554811015801561037657506006548111155b151561037e57fe5b600154341015151561038c57fe5b34600860003373ffffffffffffffffffffffffffffffffffffffff1673ffffffffffffffffffffffffffffffffffffffff1681526020019081526020016000206000018190555080600860003373ffffffffffffffffffffffffffffffffffffffff1673ffffffffffffffffffffffffffffffffffffffff16815260200190815260200160002060010181905550346002600082825401925050819055506007805480600101828161043e9190610730565b9160005260206000209001600033909190916101000a81548173ffffffffffffffffffffffffffffffffffffffff021916908373ffffffffffffffffffffffffffffffffffffffff160217905550503460096000838152602001908152602001600020600082825401925050819055506003600081548092919060010191905055506004546003541015156104d6576104d56104f7565b5b50565b60055481565b60065481565b60015481565b60045481565b60025481565b60006001600a4381151561050757fe5b0601905061051481610517565b50565b60008060008060008094505b600780549050851115156106c55760078581548110151561054057fe5b906000526020600020900160009054906101000a900473ffffffffffffffffffffffffffffffffffffffff16935085600860008673ffffffffffffffffffffffffffffffffffffffff1673ffffffffffffffffffffffffffffffffffffffff16815260200190815260200160002060010154141561066657600860008573ffffffffffffffffffffffffffffffffffffffff1673ffffffffffffffffffffffffffffffffffffffff16815260200190815260200160002060000154925060096000878152602001908152602001600020549150600254828481151561062157fe5b040290508373ffffffffffffffffffffffffffffffffffffffff166108fc829081150290604051600060405180830381858888f19350505050151561066557600080fd5b5b600860008573ffffffffffffffffffffffffffffffffffffffff1673ffffffffffffffffffffffffffffffffffffffff168152602001908152602001600020600080820160009055600182016000905550508480600101955050610523565b6106cd6106d5565b505050505050565b6000806007816106e5919061075c565b506000600281905550600060038190555060055490505b6006548111151561072d576000600960008381526020019081526020016000208190555080806001019150506106fc565b50565b815481835581811511610757578183600052602060002091820191016107569190610788565b5b505050565b815481835581811511610783578183600052602060002091820191016107829190610788565b5b505050565b6107aa91905b808211156107a657600081600090555060010161078e565b5090565b905600a165627a7a723058209e68e09ca9ddf7d0586c1d62adfb7bbe8e16af06b9912a016e90aa51573f22510029",
  "source": "pragma solidity ^0.4.18;\n\ncontract Casino {\n   address owner;\n   uint public minimumBet;\n   uint public totalBet;\n   uint public numberOfBets;\n   uint public maxAmountOfBets = 100;\n   uint public minBetNumber = 1;\n   uint public maxBetNumber = 10;\n   address[] players;\n\n   struct Player {\n     uint amountBet;\n     uint numberSelected;\n   }\n\n   mapping(address => Player) playerInfo;\n   mapping(uint => uint) amountBetPerNumber;\n\n   function Casino(uint _minimumBet) public {\n      owner = msg.sender;\n      minBetNumber = 1;\n      maxBetNumber = 10;\n      if(_minimumBet != 0) minimumBet = _minimumBet;\n   }\n\n   function kill() public {\n      if(msg.sender == owner)\n         selfdestruct(owner);\n   }\n\n   // Lets a user bet on a number between 1 and 10\n   function bet(uint number) public payable {\n     assert(checkPlayerExists(msg.sender) == false);\n     assert(number>=minBetNumber && number<=maxBetNumber);\n     assert(msg.value >= minimumBet);\n\n     playerInfo[msg.sender].amountBet = msg.value;\n     playerInfo[msg.sender].numberSelected = number;\n     totalBet += msg.value;\n     players.push(msg.sender);\n     amountBetPerNumber[number] += msg.value;\n     numberOfBets++;\n\n     if(numberOfBets >= maxAmountOfBets) generateNumberWinner();\n   }\n\n   // Generates a random number between 1 and 10\n   // TODO: Very primitive random number generator. Make it more secure\n   function generateNumberWinner() private {\n     uint random_num = block.number % 10 + 1;\n     distributePrizes(random_num);\n   }\n\n   function distributePrizes(uint winningNumber) private {\n     for(uint i = 0; i <= players.length; i++){\n       address playerAddress = players[i];\n       if(playerInfo[playerAddress].numberSelected == winningNumber) {\n         uint amountBet = playerInfo[playerAddress].amountBet;\n         uint totalBetOnWinner = amountBetPerNumber[winningNumber];\n         uint winnings = (amountBet / totalBetOnWinner) * totalBet;\n         playerAddress.transfer(winnings);\n       }\n       delete playerInfo[playerAddress];\n     }\n     resetData();\n   }\n\n   function resetData() private {\n     players.length = 0;\n     totalBet = 0;\n     numberOfBets = 0;\n     // reset all bet counters to 0\n     for(uint j = minBetNumber; j <= maxBetNumber; j++){\n       amountBetPerNumber[j] = 0;\n     }\n   }\n\n   function checkPlayerExists(address player) public constant returns(bool){\n     for(uint i = 0; i < players.length; i++) {\n       if(players[i] == player) return true;\n     }\n     return false;\n   }\n\n   // Fallback function in case someone sends ether to the contract so it\n   // doesn't get lost\n   function() public payable {}\n}\n",
  "sourcePath": "/Users/akila/Desktop/hack/crypto/casino-dapp/contracts/Casino.sol",
  "compiler": {
    "name": "solc",
    "version": "0.4.18+commit.9cf6e910.Emscripten.clang"
  },
  "schemaVersion": "1.0.1",
  "updatedAt": "2018-02-18T01:45:37.581Z"
}